{
  "_format": "hh-sol-artifact-1",
  "contractName": "FoodWars",
  "sourceName": "contracts/FoodWars.sol",
  "abi": [
    {
      "inputs": [],
      "stateMutability": "nonpayable",
      "type": "constructor"
    },
    {
      "anonymous": false,
      "inputs": [
        {
          "indexed": false,
          "internalType": "uint256",
          "name": "restaurantId",
          "type": "uint256"
        },
        {
          "indexed": false,
          "internalType": "string",
          "name": "name",
          "type": "string"
        },
        {
          "indexed": false,
          "internalType": "string",
          "name": "identifier",
          "type": "string"
        },
        {
          "indexed": false,
          "internalType": "address",
          "name": "owner",
          "type": "address"
        }
      ],
      "name": "RestaurantAdded",
      "type": "event"
    },
    {
      "anonymous": false,
      "inputs": [
        {
          "indexed": false,
          "internalType": "uint256",
          "name": "restaurantId",
          "type": "uint256"
        },
        {
          "indexed": false,
          "internalType": "uint256",
          "name": "tipAmount",
          "type": "uint256"
        },
        {
          "indexed": false,
          "internalType": "uint256",
          "name": "authorFee",
          "type": "uint256"
        }
      ],
      "name": "Tipped",
      "type": "event"
    },
    {
      "anonymous": false,
      "inputs": [
        {
          "indexed": false,
          "internalType": "bytes4",
          "name": "selector",
          "type": "bytes4"
        }
      ],
      "name": "UnrecognizedSelector",
      "type": "event"
    },
    {
      "stateMutability": "nonpayable",
      "type": "fallback"
    },
    {
      "inputs": [
        {
          "internalType": "string",
          "name": "_name",
          "type": "string"
        },
        {
          "internalType": "string",
          "name": "_identifier",
          "type": "string"
        }
      ],
      "name": "addRestaurant",
      "outputs": [],
      "stateMutability": "nonpayable",
      "type": "function"
    },
    {
      "inputs": [],
      "name": "contractAuthor",
      "outputs": [
        {
          "internalType": "address payable",
          "name": "",
          "type": "address"
        }
      ],
      "stateMutability": "view",
      "type": "function"
    },
    {
      "inputs": [],
      "name": "decimals",
      "outputs": [
        {
          "internalType": "uint8",
          "name": "",
          "type": "uint8"
        }
      ],
      "stateMutability": "view",
      "type": "function"
    },
    {
      "inputs": [],
      "name": "getAllRestaurants",
      "outputs": [
        {
          "components": [
            {
              "internalType": "string",
              "name": "name",
              "type": "string"
            },
            {
              "internalType": "string",
              "name": "identifier",
              "type": "string"
            },
            {
              "internalType": "address payable",
              "name": "owner",
              "type": "address"
            },
            {
              "internalType": "uint256",
              "name": "totalTips",
              "type": "uint256"
            }
          ],
          "internalType": "struct FoodWars.Restaurant[]",
          "name": "",
          "type": "tuple[]"
        }
      ],
      "stateMutability": "view",
      "type": "function"
    },
    {
      "inputs": [],
      "name": "getRestaurantsCount",
      "outputs": [
        {
          "internalType": "uint256",
          "name": "",
          "type": "uint256"
        }
      ],
      "stateMutability": "view",
      "type": "function"
    },
    {
      "inputs": [],
      "name": "name",
      "outputs": [
        {
          "internalType": "string",
          "name": "",
          "type": "string"
        }
      ],
      "stateMutability": "view",
      "type": "function"
    },
    {
      "inputs": [
        {
          "internalType": "uint256",
          "name": "",
          "type": "uint256"
        }
      ],
      "name": "restaurants",
      "outputs": [
        {
          "internalType": "string",
          "name": "name",
          "type": "string"
        },
        {
          "internalType": "string",
          "name": "identifier",
          "type": "string"
        },
        {
          "internalType": "address payable",
          "name": "owner",
          "type": "address"
        },
        {
          "internalType": "uint256",
          "name": "totalTips",
          "type": "uint256"
        }
      ],
      "stateMutability": "view",
      "type": "function"
    },
    {
      "inputs": [],
      "name": "symbol",
      "outputs": [
        {
          "internalType": "string",
          "name": "",
          "type": "string"
        }
      ],
      "stateMutability": "view",
      "type": "function"
    },
    {
      "inputs": [
        {
          "internalType": "string",
          "name": "_identifier",
          "type": "string"
        }
      ],
      "name": "tipRestaurant",
      "outputs": [],
      "stateMutability": "payable",
      "type": "function"
    }
  ],
  "bytecode": "0x608060405234801561001057600080fd5b5033600160006101000a81548173ffffffffffffffffffffffffffffffffffffffff021916908373ffffffffffffffffffffffffffffffffffffffff160217905550611834806100616000396000f3fe60806040526004361061008a5760003560e01c8063734e1ac311610059578063734e1ac3146101c957806387734400146101f457806395d89b411461021f5780639b2296da1461024a578063ad5461d8146102755761008b565b806306fdde031461012e5780630fba5e8114610159578063313ce5671461017557806363250796146101a05761008b565b5b34801561009757600080fd5b507f60e4a5fccbec7b571a14b8a67ef2afc7912c8b68c5421bc263eac12c6d35fd3c6000357fffffffff00000000000000000000000000000000000000000000000000000000166040516100eb9190610b00565b60405180910390a16040517f08c379a000000000000000000000000000000000000000000000000000000000815260040161012590610b78565b60405180910390fd5b34801561013a57600080fd5b506101436102b5565b6040516101509190610c17565b60405180910390f35b610173600480360381019061016e9190610d82565b6102ee565b005b34801561018157600080fd5b5061018a6104fc565b6040516101979190610de7565b60405180910390f35b3480156101ac57600080fd5b506101c760048036038101906101c29190610e02565b610501565b005b3480156101d557600080fd5b506101de610635565b6040516101eb9190610ebb565b60405180910390f35b34801561020057600080fd5b5061020961065b565b6040516102169190611074565b60405180910390f35b34801561022b57600080fd5b5061023461083e565b6040516102419190610c17565b60405180910390f35b34801561025657600080fd5b5061025f610877565b60405161026c91906110a5565b60405180910390f35b34801561028157600080fd5b5061029c600480360381019061029791906110ec565b610883565b6040516102ac9493929190611119565b60405180910390f35b6040518060400160405280600881526020017f466f6f645761727300000000000000000000000000000000000000000000000081525081565b60006102f9826109f3565b90507fffffffffffffffffffffffffffffffffffffffffffffffffffffffffffffffff810361035d576040517f08c379a0000000000000000000000000000000000000000000000000000000008152600401610354906111b8565b60405180910390fd5b6000606460053461036e9190611207565b6103789190611278565b90506000813461038891906112a9565b9050806000848154811061039f5761039e6112dd565b5b906000526020600020906004020160030160008282546103bf919061130c565b92505081905550600160009054906101000a900473ffffffffffffffffffffffffffffffffffffffff1673ffffffffffffffffffffffffffffffffffffffff166108fc839081150290604051600060405180830381858888f1935050505015801561042e573d6000803e3d6000fd5b5060008381548110610443576104426112dd565b5b906000526020600020906004020160020160009054906101000a900473ffffffffffffffffffffffffffffffffffffffff1673ffffffffffffffffffffffffffffffffffffffff166108fc829081150290604051600060405180830381858888f193505050501580156104ba573d6000803e3d6000fd5b507fa0e6810c23a7b34a45119012a905ed44d8d4fe0b90b37d2a061217eba8c58e758382846040516104ee93929190611340565b60405180910390a150505050565b601281565b600060405180608001604052808481526020018381526020013373ffffffffffffffffffffffffffffffffffffffff1681526020016000815250908060018154018082558091505060019003906000526020600020906004020160009091909190915060008201518160000190816105799190611583565b50602082015181600101908161058f9190611583565b5060408201518160020160006101000a81548173ffffffffffffffffffffffffffffffffffffffff021916908373ffffffffffffffffffffffffffffffffffffffff1602179055506060820151816003015550507f88fb1a7dbae568b93ea59361a3a1267072e2c1e8abc1ae3109abd93dee71c247600160008054905061061691906112a9565b8383336040516106299493929190611676565b60405180910390a15050565b600160009054906101000a900473ffffffffffffffffffffffffffffffffffffffff1681565b60606000805480602002602001604051908101604052809291908181526020016000905b8282101561083557838290600052602060002090600402016040518060800160405290816000820180546106b2906113a6565b80601f01602080910402602001604051908101604052809291908181526020018280546106de906113a6565b801561072b5780601f106107005761010080835404028352916020019161072b565b820191906000526020600020905b81548152906001019060200180831161070e57829003601f168201915b50505050508152602001600182018054610744906113a6565b80601f0160208091040260200160405190810160405280929190818152602001828054610770906113a6565b80156107bd5780601f10610792576101008083540402835291602001916107bd565b820191906000526020600020905b8154815290600101906020018083116107a057829003601f168201915b505050505081526020016002820160009054906101000a900473ffffffffffffffffffffffffffffffffffffffff1673ffffffffffffffffffffffffffffffffffffffff1673ffffffffffffffffffffffffffffffffffffffff1681526020016003820154815250508152602001906001019061067f565b50505050905090565b6040518060400160405280600281526020017f465700000000000000000000000000000000000000000000000000000000000081525081565b60008080549050905090565b6000818154811061089357600080fd5b90600052602060002090600402016000915090508060000180546108b6906113a6565b80601f01602080910402602001604051908101604052809291908181526020018280546108e2906113a6565b801561092f5780601f106109045761010080835404028352916020019161092f565b820191906000526020600020905b81548152906001019060200180831161091257829003601f168201915b505050505090806001018054610944906113a6565b80601f0160208091040260200160405190810160405280929190818152602001828054610970906113a6565b80156109bd5780601f10610992576101008083540402835291602001916109bd565b820191906000526020600020905b8154815290600101906020018083116109a057829003601f168201915b5050505050908060020160009054906101000a900473ffffffffffffffffffffffffffffffffffffffff16908060030154905084565b600080600090505b600080549050811015610a9b5782604051602001610a199190611705565b6040516020818303038152906040528051906020012060008281548110610a4357610a426112dd565b5b9060005260206000209060040201600101604051602001610a64919061179f565b6040516020818303038152906040528051906020012003610a885780915050610ac0565b8080610a93906117b6565b9150506109fb565b507fffffffffffffffffffffffffffffffffffffffffffffffffffffffffffffffff90505b919050565b60007fffffffff0000000000000000000000000000000000000000000000000000000082169050919050565b610afa81610ac5565b82525050565b6000602082019050610b156000830184610af1565b92915050565b600082825260208201905092915050565b7f46616c6c6261636b3a2046756e6374696f6e206e6f7420666f756e6400000000600082015250565b6000610b62601c83610b1b565b9150610b6d82610b2c565b602082019050919050565b60006020820190508181036000830152610b9181610b55565b9050919050565b600081519050919050565b60005b83811015610bc1578082015181840152602081019050610ba6565b60008484015250505050565b6000601f19601f8301169050919050565b6000610be982610b98565b610bf38185610b1b565b9350610c03818560208601610ba3565b610c0c81610bcd565b840191505092915050565b60006020820190508181036000830152610c318184610bde565b905092915050565b6000604051905090565b600080fd5b600080fd5b600080fd5b600080fd5b7f4e487b7100000000000000000000000000000000000000000000000000000000600052604160045260246000fd5b610c8f82610bcd565b810181811067ffffffffffffffff82111715610cae57610cad610c57565b5b80604052505050565b6000610cc1610c39565b9050610ccd8282610c86565b919050565b600067ffffffffffffffff821115610ced57610cec610c57565b5b610cf682610bcd565b9050602081019050919050565b82818337600083830152505050565b6000610d25610d2084610cd2565b610cb7565b905082815260208101848484011115610d4157610d40610c52565b5b610d4c848285610d03565b509392505050565b600082601f830112610d6957610d68610c4d565b5b8135610d79848260208601610d12565b91505092915050565b600060208284031215610d9857610d97610c43565b5b600082013567ffffffffffffffff811115610db657610db5610c48565b5b610dc284828501610d54565b91505092915050565b600060ff82169050919050565b610de181610dcb565b82525050565b6000602082019050610dfc6000830184610dd8565b92915050565b60008060408385031215610e1957610e18610c43565b5b600083013567ffffffffffffffff811115610e3757610e36610c48565b5b610e4385828601610d54565b925050602083013567ffffffffffffffff811115610e6457610e63610c48565b5b610e7085828601610d54565b9150509250929050565b600073ffffffffffffffffffffffffffffffffffffffff82169050919050565b6000610ea582610e7a565b9050919050565b610eb581610e9a565b82525050565b6000602082019050610ed06000830184610eac565b92915050565b600081519050919050565b600082825260208201905092915050565b6000819050602082019050919050565b600082825260208201905092915050565b6000610f1e82610b98565b610f288185610f02565b9350610f38818560208601610ba3565b610f4181610bcd565b840191505092915050565b610f5581610e9a565b82525050565b6000819050919050565b610f6e81610f5b565b82525050565b60006080830160008301518482036000860152610f918282610f13565b91505060208301518482036020860152610fab8282610f13565b9150506040830151610fc06040860182610f4c565b506060830151610fd36060860182610f65565b508091505092915050565b6000610fea8383610f74565b905092915050565b6000602082019050919050565b600061100a82610ed6565b6110148185610ee1565b93508360208202850161102685610ef2565b8060005b8581101561106257848403895281516110438582610fde565b945061104e83610ff2565b925060208a0199505060018101905061102a565b50829750879550505050505092915050565b6000602082019050818103600083015261108e8184610fff565b905092915050565b61109f81610f5b565b82525050565b60006020820190506110ba6000830184611096565b92915050565b6110c981610f5b565b81146110d457600080fd5b50565b6000813590506110e6816110c0565b92915050565b60006020828403121561110257611101610c43565b5b6000611110848285016110d7565b91505092915050565b600060808201905081810360008301526111338187610bde565b905081810360208301526111478186610bde565b90506111566040830185610eac565b6111636060830184611096565b95945050505050565b7f496e76616c69642072657374617572616e74206964656e746966696572000000600082015250565b60006111a2601d83610b1b565b91506111ad8261116c565b602082019050919050565b600060208201905081810360008301526111d181611195565b9050919050565b7f4e487b7100000000000000000000000000000000000000000000000000000000600052601160045260246000fd5b600061121282610f5b565b915061121d83610f5b565b925082820261122b81610f5b565b91508282048414831517611242576112416111d8565b5b5092915050565b7f4e487b7100000000000000000000000000000000000000000000000000000000600052601260045260246000fd5b600061128382610f5b565b915061128e83610f5b565b92508261129e5761129d611249565b5b828204905092915050565b60006112b482610f5b565b91506112bf83610f5b565b92508282039050818111156112d7576112d66111d8565b5b92915050565b7f4e487b7100000000000000000000000000000000000000000000000000000000600052603260045260246000fd5b600061131782610f5b565b915061132283610f5b565b925082820190508082111561133a576113396111d8565b5b92915050565b60006060820190506113556000830186611096565b6113626020830185611096565b61136f6040830184611096565b949350505050565b7f4e487b7100000000000000000000000000000000000000000000000000000000600052602260045260246000fd5b600060028204905060018216806113be57607f821691505b6020821081036113d1576113d0611377565b5b50919050565b60008190508160005260206000209050919050565b60006020601f8301049050919050565b600082821b905092915050565b6000600883026114397fffffffffffffffffffffffffffffffffffffffffffffffffffffffffffffffff826113fc565b61144386836113fc565b95508019841693508086168417925050509392505050565b6000819050919050565b600061148061147b61147684610f5b565b61145b565b610f5b565b9050919050565b6000819050919050565b61149a83611465565b6114ae6114a682611487565b848454611409565b825550505050565b600090565b6114c36114b6565b6114ce818484611491565b505050565b5b818110156114f2576114e76000826114bb565b6001810190506114d4565b5050565b601f82111561153757611508816113d7565b611511846113ec565b81016020851015611520578190505b61153461152c856113ec565b8301826114d3565b50505b505050565b600082821c905092915050565b600061155a6000198460080261153c565b1980831691505092915050565b60006115738383611549565b9150826002028217905092915050565b61158c82610b98565b67ffffffffffffffff8111156115a5576115a4610c57565b5b6115af82546113a6565b6115ba8282856114f6565b600060209050601f8311600181146115ed57600084156115db578287015190505b6115e58582611567565b86555061164d565b601f1984166115fb866113d7565b60005b82811015611623578489015182556001820191506020850194506020810190506115fe565b86831015611640578489015161163c601f891682611549565b8355505b6001600288020188555050505b505050505050565b600061166082610e7a565b9050919050565b61167081611655565b82525050565b600060808201905061168b6000830187611096565b818103602083015261169d8186610bde565b905081810360408301526116b18185610bde565b90506116c06060830184611667565b95945050505050565b600081905092915050565b60006116df82610b98565b6116e981856116c9565b93506116f9818560208601610ba3565b80840191505092915050565b600061171182846116d4565b915081905092915050565b60008154611729816113a6565b61173381866116c9565b9450600182166000811461174e576001811461176357611796565b60ff1983168652811515820286019350611796565b61176c856113d7565b60005b8381101561178e5781548189015260018201915060208101905061176f565b838801955050505b50505092915050565b60006117ab828461171c565b915081905092915050565b60006117c182610f5b565b91507fffffffffffffffffffffffffffffffffffffffffffffffffffffffffffffffff82036117f3576117f26111d8565b5b60018201905091905056fea2646970667358221220e93793589da22fed1a1be8458da2de07620f5a576b42271a3db1e03b0bcfb85464736f6c63430008130033",
  "linkReferences": {},
  "deployedLinkReferences": {}
}