{
  "_format": "hh-sol-artifact-1",
  "contractName": "FoodWars",
  "sourceName": "contracts/FoodWars.sol",
  "abi": [
    {
      "inputs": [],
      "stateMutability": "nonpayable",
      "type": "constructor"
    },
    {
      "anonymous": false,
      "inputs": [
        {
          "indexed": false,
          "internalType": "uint256",
          "name": "restaurantId",
          "type": "uint256"
        },
        {
          "indexed": false,
          "internalType": "string",
          "name": "name",
          "type": "string"
        },
        {
          "indexed": false,
          "internalType": "string",
          "name": "identifier",
          "type": "string"
        },
        {
          "indexed": false,
          "internalType": "address",
          "name": "owner",
          "type": "address"
        }
      ],
      "name": "RestaurantAdded",
      "type": "event"
    },
    {
      "anonymous": false,
      "inputs": [
        {
          "indexed": false,
          "internalType": "uint256",
          "name": "restaurantId",
          "type": "uint256"
        },
        {
          "indexed": false,
          "internalType": "uint256",
          "name": "tipAmount",
          "type": "uint256"
        },
        {
          "indexed": false,
          "internalType": "uint256",
          "name": "authorFee",
          "type": "uint256"
        }
      ],
      "name": "Tipped",
      "type": "event"
    },
    {
      "anonymous": false,
      "inputs": [
        {
          "indexed": false,
          "internalType": "bytes4",
          "name": "selector",
          "type": "bytes4"
        }
      ],
      "name": "UnrecognizedSelector",
      "type": "event"
    },
    {
      "stateMutability": "nonpayable",
      "type": "fallback"
    },
    {
      "inputs": [
        {
          "internalType": "string",
          "name": "_name",
          "type": "string"
        },
        {
          "internalType": "string",
          "name": "_identifier",
          "type": "string"
        }
      ],
      "name": "addRestaurant",
      "outputs": [],
      "stateMutability": "nonpayable",
      "type": "function"
    },
    {
      "inputs": [],
      "name": "contractAuthor",
      "outputs": [
        {
          "internalType": "address payable",
          "name": "",
          "type": "address"
        }
      ],
      "stateMutability": "view",
      "type": "function"
    },
    {
      "inputs": [],
      "name": "decimals",
      "outputs": [
        {
          "internalType": "uint8",
          "name": "",
          "type": "uint8"
        }
      ],
      "stateMutability": "view",
      "type": "function"
    },
    {
      "inputs": [],
      "name": "getAllRestaurants",
      "outputs": [
        {
          "components": [
            {
              "internalType": "string",
              "name": "name",
              "type": "string"
            },
            {
              "internalType": "string",
              "name": "identifier",
              "type": "string"
            },
            {
              "internalType": "address payable",
              "name": "owner",
              "type": "address"
            },
            {
              "internalType": "uint256",
              "name": "totalTips",
              "type": "uint256"
            }
          ],
          "internalType": "struct FoodWars.Restaurant[]",
          "name": "",
          "type": "tuple[]"
        }
      ],
      "stateMutability": "view",
      "type": "function"
    },
    {
      "inputs": [],
      "name": "getRestaurantsCount",
      "outputs": [
        {
          "internalType": "uint256",
          "name": "",
          "type": "uint256"
        }
      ],
      "stateMutability": "view",
      "type": "function"
    },
    {
      "inputs": [],
      "name": "name",
      "outputs": [
        {
          "internalType": "string",
          "name": "",
          "type": "string"
        }
      ],
      "stateMutability": "view",
      "type": "function"
    },
    {
      "inputs": [
        {
          "internalType": "uint256",
          "name": "",
          "type": "uint256"
        }
      ],
      "name": "restaurants",
      "outputs": [
        {
          "internalType": "string",
          "name": "name",
          "type": "string"
        },
        {
          "internalType": "string",
          "name": "identifier",
          "type": "string"
        },
        {
          "internalType": "address payable",
          "name": "owner",
          "type": "address"
        },
        {
          "internalType": "uint256",
          "name": "totalTips",
          "type": "uint256"
        }
      ],
      "stateMutability": "view",
      "type": "function"
    },
    {
      "inputs": [],
      "name": "symbol",
      "outputs": [
        {
          "internalType": "string",
          "name": "",
          "type": "string"
        }
      ],
      "stateMutability": "view",
      "type": "function"
    },
    {
      "inputs": [
        {
          "internalType": "uint256",
          "name": "_restaurantId",
          "type": "uint256"
        }
      ],
      "name": "tipRestaurant",
      "outputs": [],
      "stateMutability": "payable",
      "type": "function"
    }
  ],
  "bytecode": "0x608060405234801561001057600080fd5b5033600160006101000a81548173ffffffffffffffffffffffffffffffffffffffff021916908373ffffffffffffffffffffffffffffffffffffffff1602179055506115bb806100616000396000f3fe60806040526004361061008a5760003560e01c8063877344001161005957806387734400146101d857806395ce696b1461020357806395d89b411461021f5780639b2296da1461024a578063ad5461d8146102755761008b565b806306fdde031461012e578063313ce567146101595780636325079614610184578063734e1ac3146101ad5761008b565b5b34801561009757600080fd5b507f60e4a5fccbec7b571a14b8a67ef2afc7912c8b68c5421bc263eac12c6d35fd3c6000357fffffffff00000000000000000000000000000000000000000000000000000000166040516100eb9190610a05565b60405180910390a16040517f08c379a000000000000000000000000000000000000000000000000000000000815260040161012590610a7d565b60405180910390fd5b34801561013a57600080fd5b506101436102b5565b6040516101509190610b1c565b60405180910390f35b34801561016557600080fd5b5061016e6102ee565b60405161017b9190610b5a565b60405180910390f35b34801561019057600080fd5b506101ab60048036038101906101a69190610cbe565b6102f3565b005b3480156101b957600080fd5b506101c2610427565b6040516101cf9190610d77565b60405180910390f35b3480156101e457600080fd5b506101ed61044d565b6040516101fa9190610f30565b60405180910390f35b61021d60048036038101906102189190610f7e565b610630565b005b34801561022b57600080fd5b50610234610815565b6040516102419190610b1c565b60405180910390f35b34801561025657600080fd5b5061025f61084e565b60405161026c9190610fba565b60405180910390f35b34801561028157600080fd5b5061029c60048036038101906102979190610f7e565b61085a565b6040516102ac9493929190610fd5565b60405180910390f35b6040518060400160405280600881526020017f466f6f645761727300000000000000000000000000000000000000000000000081525081565b601281565b600060405180608001604052808481526020018381526020013373ffffffffffffffffffffffffffffffffffffffff16815260200160008152509080600181540180825580915050600190039060005260206000209060040201600090919091909150600082015181600001908161036b9190611234565b5060208201518160010190816103819190611234565b5060408201518160020160006101000a81548173ffffffffffffffffffffffffffffffffffffffff021916908373ffffffffffffffffffffffffffffffffffffffff1602179055506060820151816003015550507f88fb1a7dbae568b93ea59361a3a1267072e2c1e8abc1ae3109abd93dee71c24760016000805490506104089190611335565b83833360405161041b949392919061138a565b60405180910390a15050565b600160009054906101000a900473ffffffffffffffffffffffffffffffffffffffff1681565b60606000805480602002602001604051908101604052809291908181526020016000905b8282101561062757838290600052602060002090600402016040518060800160405290816000820180546104a490611057565b80601f01602080910402602001604051908101604052809291908181526020018280546104d090611057565b801561051d5780601f106104f25761010080835404028352916020019161051d565b820191906000526020600020905b81548152906001019060200180831161050057829003601f168201915b5050505050815260200160018201805461053690611057565b80601f016020809104026020016040519081016040528092919081815260200182805461056290611057565b80156105af5780601f10610584576101008083540402835291602001916105af565b820191906000526020600020905b81548152906001019060200180831161059257829003601f168201915b505050505081526020016002820160009054906101000a900473ffffffffffffffffffffffffffffffffffffffff1673ffffffffffffffffffffffffffffffffffffffff1673ffffffffffffffffffffffffffffffffffffffff16815260200160038201548152505081526020019060010190610471565b50505050905090565b6000805490508110610677576040517f08c379a000000000000000000000000000000000000000000000000000000000815260040161066e90611429565b60405180910390fd5b600060646005346106889190611449565b61069291906114ba565b9050600081346106a29190611335565b905080600084815481106106b9576106b86114eb565b5b906000526020600020906004020160030160008282546106d9919061151a565b92505081905550600160009054906101000a900473ffffffffffffffffffffffffffffffffffffffff1673ffffffffffffffffffffffffffffffffffffffff166108fc839081150290604051600060405180830381858888f19350505050158015610748573d6000803e3d6000fd5b506000838154811061075d5761075c6114eb565b5b906000526020600020906004020160020160009054906101000a900473ffffffffffffffffffffffffffffffffffffffff1673ffffffffffffffffffffffffffffffffffffffff166108fc829081150290604051600060405180830381858888f193505050501580156107d4573d6000803e3d6000fd5b507fa0e6810c23a7b34a45119012a905ed44d8d4fe0b90b37d2a061217eba8c58e758382846040516108089392919061154e565b60405180910390a1505050565b6040518060400160405280600281526020017f465700000000000000000000000000000000000000000000000000000000000081525081565b60008080549050905090565b6000818154811061086a57600080fd5b906000526020600020906004020160009150905080600001805461088d90611057565b80601f01602080910402602001604051908101604052809291908181526020018280546108b990611057565b80156109065780601f106108db57610100808354040283529160200191610906565b820191906000526020600020905b8154815290600101906020018083116108e957829003601f168201915b50505050509080600101805461091b90611057565b80601f016020809104026020016040519081016040528092919081815260200182805461094790611057565b80156109945780601f1061096957610100808354040283529160200191610994565b820191906000526020600020905b81548152906001019060200180831161097757829003601f168201915b5050505050908060020160009054906101000a900473ffffffffffffffffffffffffffffffffffffffff16908060030154905084565b60007fffffffff0000000000000000000000000000000000000000000000000000000082169050919050565b6109ff816109ca565b82525050565b6000602082019050610a1a60008301846109f6565b92915050565b600082825260208201905092915050565b7f46616c6c6261636b3a2046756e6374696f6e206e6f7420666f756e6400000000600082015250565b6000610a67601c83610a20565b9150610a7282610a31565b602082019050919050565b60006020820190508181036000830152610a9681610a5a565b9050919050565b600081519050919050565b60005b83811015610ac6578082015181840152602081019050610aab565b60008484015250505050565b6000601f19601f8301169050919050565b6000610aee82610a9d565b610af88185610a20565b9350610b08818560208601610aa8565b610b1181610ad2565b840191505092915050565b60006020820190508181036000830152610b368184610ae3565b905092915050565b600060ff82169050919050565b610b5481610b3e565b82525050565b6000602082019050610b6f6000830184610b4b565b92915050565b6000604051905090565b600080fd5b600080fd5b600080fd5b600080fd5b7f4e487b7100000000000000000000000000000000000000000000000000000000600052604160045260246000fd5b610bcb82610ad2565b810181811067ffffffffffffffff82111715610bea57610be9610b93565b5b80604052505050565b6000610bfd610b75565b9050610c098282610bc2565b919050565b600067ffffffffffffffff821115610c2957610c28610b93565b5b610c3282610ad2565b9050602081019050919050565b82818337600083830152505050565b6000610c61610c5c84610c0e565b610bf3565b905082815260208101848484011115610c7d57610c7c610b8e565b5b610c88848285610c3f565b509392505050565b600082601f830112610ca557610ca4610b89565b5b8135610cb5848260208601610c4e565b91505092915050565b60008060408385031215610cd557610cd4610b7f565b5b600083013567ffffffffffffffff811115610cf357610cf2610b84565b5b610cff85828601610c90565b925050602083013567ffffffffffffffff811115610d2057610d1f610b84565b5b610d2c85828601610c90565b9150509250929050565b600073ffffffffffffffffffffffffffffffffffffffff82169050919050565b6000610d6182610d36565b9050919050565b610d7181610d56565b82525050565b6000602082019050610d8c6000830184610d68565b92915050565b600081519050919050565b600082825260208201905092915050565b6000819050602082019050919050565b600082825260208201905092915050565b6000610dda82610a9d565b610de48185610dbe565b9350610df4818560208601610aa8565b610dfd81610ad2565b840191505092915050565b610e1181610d56565b82525050565b6000819050919050565b610e2a81610e17565b82525050565b60006080830160008301518482036000860152610e4d8282610dcf565b91505060208301518482036020860152610e678282610dcf565b9150506040830151610e7c6040860182610e08565b506060830151610e8f6060860182610e21565b508091505092915050565b6000610ea68383610e30565b905092915050565b6000602082019050919050565b6000610ec682610d92565b610ed08185610d9d565b935083602082028501610ee285610dae565b8060005b85811015610f1e5784840389528151610eff8582610e9a565b9450610f0a83610eae565b925060208a01995050600181019050610ee6565b50829750879550505050505092915050565b60006020820190508181036000830152610f4a8184610ebb565b905092915050565b610f5b81610e17565b8114610f6657600080fd5b50565b600081359050610f7881610f52565b92915050565b600060208284031215610f9457610f93610b7f565b5b6000610fa284828501610f69565b91505092915050565b610fb481610e17565b82525050565b6000602082019050610fcf6000830184610fab565b92915050565b60006080820190508181036000830152610fef8187610ae3565b905081810360208301526110038186610ae3565b90506110126040830185610d68565b61101f6060830184610fab565b95945050505050565b7f4e487b7100000000000000000000000000000000000000000000000000000000600052602260045260246000fd5b6000600282049050600182168061106f57607f821691505b60208210810361108257611081611028565b5b50919050565b60008190508160005260206000209050919050565b60006020601f8301049050919050565b600082821b905092915050565b6000600883026110ea7fffffffffffffffffffffffffffffffffffffffffffffffffffffffffffffffff826110ad565b6110f486836110ad565b95508019841693508086168417925050509392505050565b6000819050919050565b600061113161112c61112784610e17565b61110c565b610e17565b9050919050565b6000819050919050565b61114b83611116565b61115f61115782611138565b8484546110ba565b825550505050565b600090565b611174611167565b61117f818484611142565b505050565b5b818110156111a35761119860008261116c565b600181019050611185565b5050565b601f8211156111e8576111b981611088565b6111c28461109d565b810160208510156111d1578190505b6111e56111dd8561109d565b830182611184565b50505b505050565b600082821c905092915050565b600061120b600019846008026111ed565b1980831691505092915050565b600061122483836111fa565b9150826002028217905092915050565b61123d82610a9d565b67ffffffffffffffff81111561125657611255610b93565b5b6112608254611057565b61126b8282856111a7565b600060209050601f83116001811461129e576000841561128c578287015190505b6112968582611218565b8655506112fe565b601f1984166112ac86611088565b60005b828110156112d4578489015182556001820191506020850194506020810190506112af565b868310156112f157848901516112ed601f8916826111fa565b8355505b6001600288020188555050505b505050505050565b7f4e487b7100000000000000000000000000000000000000000000000000000000600052601160045260246000fd5b600061134082610e17565b915061134b83610e17565b925082820390508181111561136357611362611306565b5b92915050565b600061137482610d36565b9050919050565b61138481611369565b82525050565b600060808201905061139f6000830187610fab565b81810360208301526113b18186610ae3565b905081810360408301526113c58185610ae3565b90506113d4606083018461137b565b95945050505050565b7f52657374617572616e74206e6f7420666f756e64000000000000000000000000600082015250565b6000611413601483610a20565b915061141e826113dd565b602082019050919050565b6000602082019050818103600083015261144281611406565b9050919050565b600061145482610e17565b915061145f83610e17565b925082820261146d81610e17565b9150828204841483151761148457611483611306565b5b5092915050565b7f4e487b7100000000000000000000000000000000000000000000000000000000600052601260045260246000fd5b60006114c582610e17565b91506114d083610e17565b9250826114e0576114df61148b565b5b828204905092915050565b7f4e487b7100000000000000000000000000000000000000000000000000000000600052603260045260246000fd5b600061152582610e17565b915061153083610e17565b925082820190508082111561154857611547611306565b5b92915050565b60006060820190506115636000830186610fab565b6115706020830185610fab565b61157d6040830184610fab565b94935050505056fea264697066735822122075ede8c779fd59567bbd2bb0321da214bfe33af70959e76463aabb6cfbabb6de64736f6c63430008130033",
  "linkReferences": {},
  "deployedLinkReferences": {}
}