{
  "_format": "hh-sol-artifact-1",
  "contractName": "FoodWars",
  "sourceName": "contracts/FoodWars.sol",
  "abi": [
    {
      "anonymous": false,
      "inputs": [
        {
          "indexed": false,
          "internalType": "uint256",
          "name": "restaurantId",
          "type": "uint256"
        },
        {
          "indexed": false,
          "internalType": "string",
          "name": "name",
          "type": "string"
        },
        {
          "indexed": false,
          "internalType": "string",
          "name": "identifier",
          "type": "string"
        },
        {
          "indexed": false,
          "internalType": "address",
          "name": "owner",
          "type": "address"
        }
      ],
      "name": "RestaurantAdded",
      "type": "event"
    },
    {
      "anonymous": false,
      "inputs": [
        {
          "indexed": false,
          "internalType": "uint256",
          "name": "restaurantId",
          "type": "uint256"
        },
        {
          "indexed": false,
          "internalType": "uint256",
          "name": "tipAmount",
          "type": "uint256"
        },
        {
          "indexed": false,
          "internalType": "uint256",
          "name": "authorFee",
          "type": "uint256"
        }
      ],
      "name": "Tipped",
      "type": "event"
    },
    {
      "anonymous": false,
      "inputs": [
        {
          "indexed": false,
          "internalType": "bytes4",
          "name": "selector",
          "type": "bytes4"
        }
      ],
      "name": "UnrecognizedSelector",
      "type": "event"
    },
    {
      "stateMutability": "nonpayable",
      "type": "fallback"
    },
    {
      "inputs": [
        {
          "internalType": "string",
          "name": "_name",
          "type": "string"
        },
        {
          "internalType": "string",
          "name": "_identifier",
          "type": "string"
        }
      ],
      "name": "addRestaurant",
      "outputs": [],
      "stateMutability": "nonpayable",
      "type": "function"
    },
    {
      "inputs": [],
      "name": "contractAuthor",
      "outputs": [
        {
          "internalType": "address payable",
          "name": "",
          "type": "address"
        }
      ],
      "stateMutability": "view",
      "type": "function"
    },
    {
      "inputs": [
        {
          "internalType": "uint256",
          "name": "",
          "type": "uint256"
        }
      ],
      "name": "restaurants",
      "outputs": [
        {
          "internalType": "string",
          "name": "name",
          "type": "string"
        },
        {
          "internalType": "string",
          "name": "identifier",
          "type": "string"
        },
        {
          "internalType": "address payable",
          "name": "owner",
          "type": "address"
        },
        {
          "internalType": "uint256",
          "name": "totalTips",
          "type": "uint256"
        }
      ],
      "stateMutability": "view",
      "type": "function"
    },
    {
      "inputs": [],
      "name": "restaurantsCount",
      "outputs": [
        {
          "internalType": "uint256",
          "name": "",
          "type": "uint256"
        }
      ],
      "stateMutability": "view",
      "type": "function"
    },
    {
      "inputs": [
        {
          "internalType": "uint256",
          "name": "_restaurantId",
          "type": "uint256"
        }
      ],
      "name": "tipRestaurant",
      "outputs": [],
      "stateMutability": "payable",
      "type": "function"
    }
  ],
  "bytecode": "0x6080604052600060015533600260006101000a81548173ffffffffffffffffffffffffffffffffffffffff021916908373ffffffffffffffffffffffffffffffffffffffff160217905550600560035534801561005b57600080fd5b50610f9a8061006b6000396000f3fe60806040526004361061004e5760003560e01c806363250796146100b9578063734e1ac3146100e257806395ce696b1461010d578063ad5461d814610129578063f667e2b3146101695761004f565b5b34801561005b57600080fd5b507f60e4a5fccbec7b571a14b8a67ef2afc7912c8b68c5421bc263eac12c6d35fd3c6000357fffffffff00000000000000000000000000000000000000000000000000000000166040516100af9190610646565b60405180910390a1005b3480156100c557600080fd5b506100e060048036038101906100db91906107bb565b610194565b005b3480156100ee57600080fd5b506100f76102bb565b6040516101049190610874565b60405180910390f35b610127600480360381019061012291906108c5565b6102e1565b005b34801561013557600080fd5b50610150600480360381019061014b91906108c5565b6104a5565b6040516101609493929190610980565b60405180910390f35b34801561017557600080fd5b5061017e610605565b60405161018b91906109d3565b60405180910390f35b600160008154809291906101a790610a1d565b919050555060405180608001604052808381526020018281526020013373ffffffffffffffffffffffffffffffffffffffff16815260200160008152506000806001548152602001908152602001600020600082015181600001908161020d9190610c71565b5060208201518160010190816102239190610c71565b5060408201518160020160006101000a81548173ffffffffffffffffffffffffffffffffffffffff021916908373ffffffffffffffffffffffffffffffffffffffff160217905550606082015181600301559050507f88fb1a7dbae568b93ea59361a3a1267072e2c1e8abc1ae3109abd93dee71c2476001548383336040516102af9493929190610d64565b60405180910390a15050565b600260009054906101000a900473ffffffffffffffffffffffffffffffffffffffff1681565b600154811115610326576040517f08c379a000000000000000000000000000000000000000000000000000000000815260040161031d90610e03565b60405180910390fd5b60006064600354346103389190610e23565b6103429190610e94565b9050600081346103529190610ec5565b90508060008085815260200190815260200160002060030160008282546103799190610ef9565b92505081905550600260009054906101000a900473ffffffffffffffffffffffffffffffffffffffff1673ffffffffffffffffffffffffffffffffffffffff166108fc839081150290604051600060405180830381858888f193505050501580156103e8573d6000803e3d6000fd5b5060008084815260200190815260200160002060020160009054906101000a900473ffffffffffffffffffffffffffffffffffffffff1673ffffffffffffffffffffffffffffffffffffffff166108fc829081150290604051600060405180830381858888f19350505050158015610464573d6000803e3d6000fd5b507fa0e6810c23a7b34a45119012a905ed44d8d4fe0b90b37d2a061217eba8c58e7583828460405161049893929190610f2d565b60405180910390a1505050565b60006020528060005260406000206000915090508060000180546104c890610a94565b80601f01602080910402602001604051908101604052809291908181526020018280546104f490610a94565b80156105415780601f1061051657610100808354040283529160200191610541565b820191906000526020600020905b81548152906001019060200180831161052457829003601f168201915b50505050509080600101805461055690610a94565b80601f016020809104026020016040519081016040528092919081815260200182805461058290610a94565b80156105cf5780601f106105a4576101008083540402835291602001916105cf565b820191906000526020600020905b8154815290600101906020018083116105b257829003601f168201915b5050505050908060020160009054906101000a900473ffffffffffffffffffffffffffffffffffffffff16908060030154905084565b60015481565b60007fffffffff0000000000000000000000000000000000000000000000000000000082169050919050565b6106408161060b565b82525050565b600060208201905061065b6000830184610637565b92915050565b6000604051905090565b600080fd5b600080fd5b600080fd5b600080fd5b6000601f19601f8301169050919050565b7f4e487b7100000000000000000000000000000000000000000000000000000000600052604160045260246000fd5b6106c88261067f565b810181811067ffffffffffffffff821117156106e7576106e6610690565b5b80604052505050565b60006106fa610661565b905061070682826106bf565b919050565b600067ffffffffffffffff82111561072657610725610690565b5b61072f8261067f565b9050602081019050919050565b82818337600083830152505050565b600061075e6107598461070b565b6106f0565b90508281526020810184848401111561077a5761077961067a565b5b61078584828561073c565b509392505050565b600082601f8301126107a2576107a1610675565b5b81356107b284826020860161074b565b91505092915050565b600080604083850312156107d2576107d161066b565b5b600083013567ffffffffffffffff8111156107f0576107ef610670565b5b6107fc8582860161078d565b925050602083013567ffffffffffffffff81111561081d5761081c610670565b5b6108298582860161078d565b9150509250929050565b600073ffffffffffffffffffffffffffffffffffffffff82169050919050565b600061085e82610833565b9050919050565b61086e81610853565b82525050565b60006020820190506108896000830184610865565b92915050565b6000819050919050565b6108a28161088f565b81146108ad57600080fd5b50565b6000813590506108bf81610899565b92915050565b6000602082840312156108db576108da61066b565b5b60006108e9848285016108b0565b91505092915050565b600081519050919050565b600082825260208201905092915050565b60005b8381101561092c578082015181840152602081019050610911565b60008484015250505050565b6000610943826108f2565b61094d81856108fd565b935061095d81856020860161090e565b6109668161067f565b840191505092915050565b61097a8161088f565b82525050565b6000608082019050818103600083015261099a8187610938565b905081810360208301526109ae8186610938565b90506109bd6040830185610865565b6109ca6060830184610971565b95945050505050565b60006020820190506109e86000830184610971565b92915050565b7f4e487b7100000000000000000000000000000000000000000000000000000000600052601160045260246000fd5b6000610a288261088f565b91507fffffffffffffffffffffffffffffffffffffffffffffffffffffffffffffffff8203610a5a57610a596109ee565b5b600182019050919050565b7f4e487b7100000000000000000000000000000000000000000000000000000000600052602260045260246000fd5b60006002820490506001821680610aac57607f821691505b602082108103610abf57610abe610a65565b5b50919050565b60008190508160005260206000209050919050565b60006020601f8301049050919050565b600082821b905092915050565b600060088302610b277fffffffffffffffffffffffffffffffffffffffffffffffffffffffffffffffff82610aea565b610b318683610aea565b95508019841693508086168417925050509392505050565b6000819050919050565b6000610b6e610b69610b648461088f565b610b49565b61088f565b9050919050565b6000819050919050565b610b8883610b53565b610b9c610b9482610b75565b848454610af7565b825550505050565b600090565b610bb1610ba4565b610bbc818484610b7f565b505050565b5b81811015610be057610bd5600082610ba9565b600181019050610bc2565b5050565b601f821115610c2557610bf681610ac5565b610bff84610ada565b81016020851015610c0e578190505b610c22610c1a85610ada565b830182610bc1565b50505b505050565b600082821c905092915050565b6000610c4860001984600802610c2a565b1980831691505092915050565b6000610c618383610c37565b9150826002028217905092915050565b610c7a826108f2565b67ffffffffffffffff811115610c9357610c92610690565b5b610c9d8254610a94565b610ca8828285610be4565b600060209050601f831160018114610cdb5760008415610cc9578287015190505b610cd38582610c55565b865550610d3b565b601f198416610ce986610ac5565b60005b82811015610d1157848901518255600182019150602085019450602081019050610cec565b86831015610d2e5784890151610d2a601f891682610c37565b8355505b6001600288020188555050505b505050505050565b6000610d4e82610833565b9050919050565b610d5e81610d43565b82525050565b6000608082019050610d796000830187610971565b8181036020830152610d8b8186610938565b90508181036040830152610d9f8185610938565b9050610dae6060830184610d55565b95945050505050565b7f52657374617572616e74206e6f7420666f756e64000000000000000000000000600082015250565b6000610ded6014836108fd565b9150610df882610db7565b602082019050919050565b60006020820190508181036000830152610e1c81610de0565b9050919050565b6000610e2e8261088f565b9150610e398361088f565b9250828202610e478161088f565b91508282048414831517610e5e57610e5d6109ee565b5b5092915050565b7f4e487b7100000000000000000000000000000000000000000000000000000000600052601260045260246000fd5b6000610e9f8261088f565b9150610eaa8361088f565b925082610eba57610eb9610e65565b5b828204905092915050565b6000610ed08261088f565b9150610edb8361088f565b9250828203905081811115610ef357610ef26109ee565b5b92915050565b6000610f048261088f565b9150610f0f8361088f565b9250828201905080821115610f2757610f266109ee565b5b92915050565b6000606082019050610f426000830186610971565b610f4f6020830185610971565b610f5c6040830184610971565b94935050505056fea2646970667358221220d1adea5e1c9203e569c453f4cd2b25936dc447ba4fbc9b73f9ef923aa130470a64736f6c63430008130033",
  "linkReferences": {},
  "deployedLinkReferences": {}
}