{
  "_format": "hh-sol-artifact-1",
  "contractName": "FoodWars",
  "sourceName": "contracts/FoodWars.sol",
  "abi": [
    {
      "anonymous": false,
      "inputs": [
        {
          "indexed": false,
          "internalType": "uint256",
          "name": "restaurantId",
          "type": "uint256"
        },
        {
          "indexed": false,
          "internalType": "string",
          "name": "name",
          "type": "string"
        },
        {
          "indexed": false,
          "internalType": "string",
          "name": "identifier",
          "type": "string"
        },
        {
          "indexed": false,
          "internalType": "address",
          "name": "owner",
          "type": "address"
        }
      ],
      "name": "RestaurantAdded",
      "type": "event"
    },
    {
      "anonymous": false,
      "inputs": [
        {
          "indexed": false,
          "internalType": "uint256",
          "name": "restaurantId",
          "type": "uint256"
        },
        {
          "indexed": false,
          "internalType": "uint256",
          "name": "tipAmount",
          "type": "uint256"
        },
        {
          "indexed": false,
          "internalType": "uint256",
          "name": "authorFee",
          "type": "uint256"
        }
      ],
      "name": "Tipped",
      "type": "event"
    },
    {
      "inputs": [
        {
          "internalType": "string",
          "name": "_name",
          "type": "string"
        },
        {
          "internalType": "string",
          "name": "_identifier",
          "type": "string"
        }
      ],
      "name": "addRestaurant",
      "outputs": [],
      "stateMutability": "nonpayable",
      "type": "function"
    },
    {
      "inputs": [],
      "name": "authorFeePercentage",
      "outputs": [
        {
          "internalType": "uint256",
          "name": "",
          "type": "uint256"
        }
      ],
      "stateMutability": "view",
      "type": "function"
    },
    {
      "inputs": [],
      "name": "contractAuthor",
      "outputs": [
        {
          "internalType": "address payable",
          "name": "",
          "type": "address"
        }
      ],
      "stateMutability": "view",
      "type": "function"
    },
    {
      "inputs": [
        {
          "internalType": "uint256",
          "name": "",
          "type": "uint256"
        }
      ],
      "name": "restaurants",
      "outputs": [
        {
          "internalType": "string",
          "name": "name",
          "type": "string"
        },
        {
          "internalType": "string",
          "name": "identifier",
          "type": "string"
        },
        {
          "internalType": "address payable",
          "name": "owner",
          "type": "address"
        },
        {
          "internalType": "uint256",
          "name": "totalTips",
          "type": "uint256"
        }
      ],
      "stateMutability": "view",
      "type": "function"
    },
    {
      "inputs": [],
      "name": "restaurantsCount",
      "outputs": [
        {
          "internalType": "uint256",
          "name": "",
          "type": "uint256"
        }
      ],
      "stateMutability": "view",
      "type": "function"
    },
    {
      "inputs": [
        {
          "internalType": "uint256",
          "name": "_restaurantId",
          "type": "uint256"
        }
      ],
      "name": "tipRestaurant",
      "outputs": [],
      "stateMutability": "payable",
      "type": "function"
    }
  ],
  "bytecode": "0x6080604052600060015533600260006101000a81548173ffffffffffffffffffffffffffffffffffffffff021916908373ffffffffffffffffffffffffffffffffffffffff160217905550600560035534801561005b57600080fd5b50610f168061006b6000396000f3fe6080604052600436106100555760003560e01c8063632507961461005a578063734e1ac314610083578063882772c0146100ae57806395ce696b146100d9578063ad5461d8146100f5578063f667e2b314610135575b600080fd5b34801561006657600080fd5b50610081600480360381019061007c9190610737565b610160565b005b34801561008f57600080fd5b50610098610287565b6040516100a591906107f0565b60405180910390f35b3480156100ba57600080fd5b506100c36102ad565b6040516100d09190610824565b60405180910390f35b6100f360048036038101906100ee919061086b565b6102b3565b005b34801561010157600080fd5b5061011c6004803603810190610117919061086b565b610477565b60405161012c9493929190610917565b60405180910390f35b34801561014157600080fd5b5061014a6105d7565b6040516101579190610824565b60405180910390f35b6001600081548092919061017390610999565b919050555060405180608001604052808381526020018281526020013373ffffffffffffffffffffffffffffffffffffffff1681526020016000815250600080600154815260200190815260200160002060008201518160000190816101d99190610bed565b5060208201518160010190816101ef9190610bed565b5060408201518160020160006101000a81548173ffffffffffffffffffffffffffffffffffffffff021916908373ffffffffffffffffffffffffffffffffffffffff160217905550606082015181600301559050507f88fb1a7dbae568b93ea59361a3a1267072e2c1e8abc1ae3109abd93dee71c24760015483833360405161027b9493929190610ce0565b60405180910390a15050565b600260009054906101000a900473ffffffffffffffffffffffffffffffffffffffff1681565b60035481565b6001548111156102f8576040517f08c379a00000000000000000000000000000000000000000000000000000000081526004016102ef90610d7f565b60405180910390fd5b600060646003543461030a9190610d9f565b6103149190610e10565b9050600081346103249190610e41565b905080600080858152602001908152602001600020600301600082825461034b9190610e75565b92505081905550600260009054906101000a900473ffffffffffffffffffffffffffffffffffffffff1673ffffffffffffffffffffffffffffffffffffffff166108fc839081150290604051600060405180830381858888f193505050501580156103ba573d6000803e3d6000fd5b5060008084815260200190815260200160002060020160009054906101000a900473ffffffffffffffffffffffffffffffffffffffff1673ffffffffffffffffffffffffffffffffffffffff166108fc829081150290604051600060405180830381858888f19350505050158015610436573d6000803e3d6000fd5b507fa0e6810c23a7b34a45119012a905ed44d8d4fe0b90b37d2a061217eba8c58e7583828460405161046a93929190610ea9565b60405180910390a1505050565b600060205280600052604060002060009150905080600001805461049a90610a10565b80601f01602080910402602001604051908101604052809291908181526020018280546104c690610a10565b80156105135780601f106104e857610100808354040283529160200191610513565b820191906000526020600020905b8154815290600101906020018083116104f657829003601f168201915b50505050509080600101805461052890610a10565b80601f016020809104026020016040519081016040528092919081815260200182805461055490610a10565b80156105a15780601f10610576576101008083540402835291602001916105a1565b820191906000526020600020905b81548152906001019060200180831161058457829003601f168201915b5050505050908060020160009054906101000a900473ffffffffffffffffffffffffffffffffffffffff16908060030154905084565b60015481565b6000604051905090565b600080fd5b600080fd5b600080fd5b600080fd5b6000601f19601f8301169050919050565b7f4e487b7100000000000000000000000000000000000000000000000000000000600052604160045260246000fd5b610644826105fb565b810181811067ffffffffffffffff821117156106635761066261060c565b5b80604052505050565b60006106766105dd565b9050610682828261063b565b919050565b600067ffffffffffffffff8211156106a2576106a161060c565b5b6106ab826105fb565b9050602081019050919050565b82818337600083830152505050565b60006106da6106d584610687565b61066c565b9050828152602081018484840111156106f6576106f56105f6565b5b6107018482856106b8565b509392505050565b600082601f83011261071e5761071d6105f1565b5b813561072e8482602086016106c7565b91505092915050565b6000806040838503121561074e5761074d6105e7565b5b600083013567ffffffffffffffff81111561076c5761076b6105ec565b5b61077885828601610709565b925050602083013567ffffffffffffffff811115610799576107986105ec565b5b6107a585828601610709565b9150509250929050565b600073ffffffffffffffffffffffffffffffffffffffff82169050919050565b60006107da826107af565b9050919050565b6107ea816107cf565b82525050565b600060208201905061080560008301846107e1565b92915050565b6000819050919050565b61081e8161080b565b82525050565b60006020820190506108396000830184610815565b92915050565b6108488161080b565b811461085357600080fd5b50565b6000813590506108658161083f565b92915050565b600060208284031215610881576108806105e7565b5b600061088f84828501610856565b91505092915050565b600081519050919050565b600082825260208201905092915050565b60005b838110156108d25780820151818401526020810190506108b7565b60008484015250505050565b60006108e982610898565b6108f381856108a3565b93506109038185602086016108b4565b61090c816105fb565b840191505092915050565b6000608082019050818103600083015261093181876108de565b9050818103602083015261094581866108de565b905061095460408301856107e1565b6109616060830184610815565b95945050505050565b7f4e487b7100000000000000000000000000000000000000000000000000000000600052601160045260246000fd5b60006109a48261080b565b91507fffffffffffffffffffffffffffffffffffffffffffffffffffffffffffffffff82036109d6576109d561096a565b5b600182019050919050565b7f4e487b7100000000000000000000000000000000000000000000000000000000600052602260045260246000fd5b60006002820490506001821680610a2857607f821691505b602082108103610a3b57610a3a6109e1565b5b50919050565b60008190508160005260206000209050919050565b60006020601f8301049050919050565b600082821b905092915050565b600060088302610aa37fffffffffffffffffffffffffffffffffffffffffffffffffffffffffffffffff82610a66565b610aad8683610a66565b95508019841693508086168417925050509392505050565b6000819050919050565b6000610aea610ae5610ae08461080b565b610ac5565b61080b565b9050919050565b6000819050919050565b610b0483610acf565b610b18610b1082610af1565b848454610a73565b825550505050565b600090565b610b2d610b20565b610b38818484610afb565b505050565b5b81811015610b5c57610b51600082610b25565b600181019050610b3e565b5050565b601f821115610ba157610b7281610a41565b610b7b84610a56565b81016020851015610b8a578190505b610b9e610b9685610a56565b830182610b3d565b50505b505050565b600082821c905092915050565b6000610bc460001984600802610ba6565b1980831691505092915050565b6000610bdd8383610bb3565b9150826002028217905092915050565b610bf682610898565b67ffffffffffffffff811115610c0f57610c0e61060c565b5b610c198254610a10565b610c24828285610b60565b600060209050601f831160018114610c575760008415610c45578287015190505b610c4f8582610bd1565b865550610cb7565b601f198416610c6586610a41565b60005b82811015610c8d57848901518255600182019150602085019450602081019050610c68565b86831015610caa5784890151610ca6601f891682610bb3565b8355505b6001600288020188555050505b505050505050565b6000610cca826107af565b9050919050565b610cda81610cbf565b82525050565b6000608082019050610cf56000830187610815565b8181036020830152610d0781866108de565b90508181036040830152610d1b81856108de565b9050610d2a6060830184610cd1565b95945050505050565b7f52657374617572616e74206e6f7420666f756e64000000000000000000000000600082015250565b6000610d696014836108a3565b9150610d7482610d33565b602082019050919050565b60006020820190508181036000830152610d9881610d5c565b9050919050565b6000610daa8261080b565b9150610db58361080b565b9250828202610dc38161080b565b91508282048414831517610dda57610dd961096a565b5b5092915050565b7f4e487b7100000000000000000000000000000000000000000000000000000000600052601260045260246000fd5b6000610e1b8261080b565b9150610e268361080b565b925082610e3657610e35610de1565b5b828204905092915050565b6000610e4c8261080b565b9150610e578361080b565b9250828203905081811115610e6f57610e6e61096a565b5b92915050565b6000610e808261080b565b9150610e8b8361080b565b9250828201905080821115610ea357610ea261096a565b5b92915050565b6000606082019050610ebe6000830186610815565b610ecb6020830185610815565b610ed86040830184610815565b94935050505056fea2646970667358221220a6024efdb58584b7dbfe37c540170165574d346253b4c820ce3f6b2fb6ab585364736f6c63430008130033",
  "linkReferences": {},
  "deployedLinkReferences": {}
}