{
  "_format": "hh-sol-artifact-1",
  "contractName": "Voting",
  "sourceName": "contracts/Voting.sol",
  "abi": [
    {
      "inputs": [],
      "stateMutability": "nonpayable",
      "type": "constructor"
    },
    {
      "anonymous": false,
      "inputs": [
        {
          "indexed": true,
          "internalType": "uint256",
          "name": "candidateId",
          "type": "uint256"
        },
        {
          "indexed": false,
          "internalType": "string",
          "name": "name",
          "type": "string"
        }
      ],
      "name": "CandidateAdded",
      "type": "event"
    },
    {
      "anonymous": false,
      "inputs": [
        {
          "indexed": true,
          "internalType": "uint256",
          "name": "round",
          "type": "uint256"
        }
      ],
      "name": "NewVotingRoundStarted",
      "type": "event"
    },
    {
      "anonymous": false,
      "inputs": [
        {
          "indexed": false,
          "internalType": "bytes4",
          "name": "selector",
          "type": "bytes4"
        }
      ],
      "name": "UnrecognizedFunctionCall",
      "type": "event"
    },
    {
      "anonymous": false,
      "inputs": [
        {
          "indexed": true,
          "internalType": "address",
          "name": "voter",
          "type": "address"
        },
        {
          "indexed": true,
          "internalType": "uint256",
          "name": "candidateId",
          "type": "uint256"
        },
        {
          "indexed": true,
          "internalType": "uint256",
          "name": "round",
          "type": "uint256"
        }
      ],
      "name": "Voted",
      "type": "event"
    },
    {
      "stateMutability": "nonpayable",
      "type": "fallback"
    },
    {
      "inputs": [
        {
          "internalType": "uint256",
          "name": "",
          "type": "uint256"
        }
      ],
      "name": "candidates",
      "outputs": [
        {
          "internalType": "string",
          "name": "name",
          "type": "string"
        },
        {
          "internalType": "uint256",
          "name": "voteCount",
          "type": "uint256"
        }
      ],
      "stateMutability": "view",
      "type": "function"
    },
    {
      "inputs": [],
      "name": "candidatesCount",
      "outputs": [
        {
          "internalType": "uint256",
          "name": "",
          "type": "uint256"
        }
      ],
      "stateMutability": "view",
      "type": "function"
    },
    {
      "inputs": [],
      "name": "currentRound",
      "outputs": [
        {
          "internalType": "uint256",
          "name": "",
          "type": "uint256"
        }
      ],
      "stateMutability": "view",
      "type": "function"
    },
    {
      "inputs": [],
      "name": "startNewVotingRound",
      "outputs": [],
      "stateMutability": "nonpayable",
      "type": "function"
    },
    {
      "inputs": [
        {
          "internalType": "uint256",
          "name": "_candidateId",
          "type": "uint256"
        }
      ],
      "name": "vote",
      "outputs": [],
      "stateMutability": "nonpayable",
      "type": "function"
    },
    {
      "inputs": [
        {
          "internalType": "address",
          "name": "",
          "type": "address"
        },
        {
          "internalType": "uint256",
          "name": "",
          "type": "uint256"
        }
      ],
      "name": "voterRounds",
      "outputs": [
        {
          "internalType": "bool",
          "name": "",
          "type": "bool"
        }
      ],
      "stateMutability": "view",
      "type": "function"
    }
  ],
  "bytecode": "0x608060405260016003553480156200001657600080fd5b506200005d6040518060400160405280600b81526020017f43616e6469646174652031000000000000000000000000000000000000000000815250620000a960201b60201c565b620000a36040518060400160405280600b81526020017f43616e6469646174652032000000000000000000000000000000000000000000815250620000a960201b60201c565b620005e2565b604051806040016040528082815260200160008152506001600060025481526020019081526020016000206000820151816000019081620000eb9190620003cc565b50602082015181600101559050506002547fe83b2a43e7e82d975c8a0a6d2f045153c869e111136a34d1889ab7b598e396a3826040516200012d919062000542565b60405180910390a2600260008154809291906200014a9062000595565b919050555050565b600081519050919050565b7f4e487b7100000000000000000000000000000000000000000000000000000000600052604160045260246000fd5b7f4e487b7100000000000000000000000000000000000000000000000000000000600052602260045260246000fd5b60006002820490506001821680620001d457607f821691505b602082108103620001ea57620001e96200018c565b5b50919050565b60008190508160005260206000209050919050565b60006020601f8301049050919050565b600082821b905092915050565b600060088302620002547fffffffffffffffffffffffffffffffffffffffffffffffffffffffffffffffff8262000215565b62000260868362000215565b95508019841693508086168417925050509392505050565b6000819050919050565b6000819050919050565b6000620002ad620002a7620002a18462000278565b62000282565b62000278565b9050919050565b6000819050919050565b620002c9836200028c565b620002e1620002d882620002b4565b84845462000222565b825550505050565b600090565b620002f8620002e9565b62000305818484620002be565b505050565b5b818110156200032d5762000321600082620002ee565b6001810190506200030b565b5050565b601f8211156200037c576200034681620001f0565b620003518462000205565b8101602085101562000361578190505b62000379620003708562000205565b8301826200030a565b50505b505050565b600082821c905092915050565b6000620003a16000198460080262000381565b1980831691505092915050565b6000620003bc83836200038e565b9150826002028217905092915050565b620003d78262000152565b67ffffffffffffffff811115620003f357620003f26200015d565b5b620003ff8254620001bb565b6200040c82828562000331565b600060209050601f8311600181146200044457600084156200042f578287015190505b6200043b8582620003ae565b865550620004ab565b601f1984166200045486620001f0565b60005b828110156200047e5784890151825560018201915060208501945060208101905062000457565b868310156200049e57848901516200049a601f8916826200038e565b8355505b6001600288020188555050505b505050505050565b600082825260208201905092915050565b60005b83811015620004e4578082015181840152602081019050620004c7565b60008484015250505050565b6000601f19601f8301169050919050565b60006200050e8262000152565b6200051a8185620004b3565b93506200052c818560208601620004c4565b6200053781620004f0565b840191505092915050565b600060208201905081810360008301526200055e818462000501565b905092915050565b7f4e487b7100000000000000000000000000000000000000000000000000000000600052601160045260246000fd5b6000620005a28262000278565b91507fffffffffffffffffffffffffffffffffffffffffffffffffffffffffffffffff8203620005d757620005d662000566565b5b600182019050919050565b61094b80620005f26000396000f3fe608060405234801561001057600080fd5b50600436106100665760003560e01c80630121b93f146100c45780632d35a8a2146100e05780633477ee2e146100fe5780635e777c1b1461012f5780638a19c8bc1461015f578063b74d149c1461017d57610067565b5b7f21da4ca06fbeb5e4848892a6dd092ee03d0369945b85e074d911156332bf9ece6000357fffffffff00000000000000000000000000000000000000000000000000000000166040516100ba91906104ff565b60405180910390a1005b6100de60048036038101906100d99190610555565b610187565b005b6100e8610357565b6040516100f59190610591565b60405180910390f35b61011860048036038101906101139190610555565b61035d565b60405161012692919061063c565b60405180910390f35b610149600480360381019061014491906106ca565b610409565b6040516101569190610725565b60405180910390f35b610167610438565b6040516101749190610591565b60405180910390f35b61018561043e565b005b6000803373ffffffffffffffffffffffffffffffffffffffff1673ffffffffffffffffffffffffffffffffffffffff1681526020019081526020016000206000600354815260200190815260200160002060009054906101000a900460ff1615610226576040517f08c379a000000000000000000000000000000000000000000000000000000000815260040161021d906107b2565b60405180910390fd5b60008110158015610238575060025481105b610277576040517f08c379a000000000000000000000000000000000000000000000000000000000815260040161026e9061081e565b60405180910390fd5b60016000803373ffffffffffffffffffffffffffffffffffffffff1673ffffffffffffffffffffffffffffffffffffffff1681526020019081526020016000206000600354815260200190815260200160002060006101000a81548160ff0219169083151502179055506001600082815260200190815260200160002060010160008154809291906103089061086d565b9190505550600354813373ffffffffffffffffffffffffffffffffffffffff167fea66f58e474bc09f580000e81f31b334d171db387d0c6098ba47bd897741679b60405160405180910390a450565b60025481565b6001602052806000526040600020600091509050806000018054610380906108e4565b80601f01602080910402602001604051908101604052809291908181526020018280546103ac906108e4565b80156103f95780601f106103ce576101008083540402835291602001916103f9565b820191906000526020600020905b8154815290600101906020018083116103dc57829003601f168201915b5050505050908060010154905082565b60006020528160005260406000206020528060005260406000206000915091509054906101000a900460ff1681565b60035481565b600360008154809291906104519061086d565b919050555060005b6002548110156104925760006001600083815260200190815260200160002060010181905550808061048a9061086d565b915050610459565b506003547f14145ac857cf9dc1af0dac1629905781df99f6d5ea5de68128667ee0caf922b460405160405180910390a2565b60007fffffffff0000000000000000000000000000000000000000000000000000000082169050919050565b6104f9816104c4565b82525050565b600060208201905061051460008301846104f0565b92915050565b600080fd5b6000819050919050565b6105328161051f565b811461053d57600080fd5b50565b60008135905061054f81610529565b92915050565b60006020828403121561056b5761056a61051a565b5b600061057984828501610540565b91505092915050565b61058b8161051f565b82525050565b60006020820190506105a66000830184610582565b92915050565b600081519050919050565b600082825260208201905092915050565b60005b838110156105e65780820151818401526020810190506105cb565b60008484015250505050565b6000601f19601f8301169050919050565b600061060e826105ac565b61061881856105b7565b93506106288185602086016105c8565b610631816105f2565b840191505092915050565b600060408201905081810360008301526106568185610603565b90506106656020830184610582565b9392505050565b600073ffffffffffffffffffffffffffffffffffffffff82169050919050565b60006106978261066c565b9050919050565b6106a78161068c565b81146106b257600080fd5b50565b6000813590506106c48161069e565b92915050565b600080604083850312156106e1576106e061051a565b5b60006106ef858286016106b5565b925050602061070085828601610540565b9150509250929050565b60008115159050919050565b61071f8161070a565b82525050565b600060208201905061073a6000830184610716565b92915050565b7f596f75206861766520616c726561647920766f74656420696e2074686973207260008201527f6f756e642e000000000000000000000000000000000000000000000000000000602082015250565b600061079c6025836105b7565b91506107a782610740565b604082019050919050565b600060208201905081810360008301526107cb8161078f565b9050919050565b7f496e76616c69642063616e6469646174652049442e0000000000000000000000600082015250565b60006108086015836105b7565b9150610813826107d2565b602082019050919050565b60006020820190508181036000830152610837816107fb565b9050919050565b7f4e487b7100000000000000000000000000000000000000000000000000000000600052601160045260246000fd5b60006108788261051f565b91507fffffffffffffffffffffffffffffffffffffffffffffffffffffffffffffffff82036108aa576108a961083e565b5b600182019050919050565b7f4e487b7100000000000000000000000000000000000000000000000000000000600052602260045260246000fd5b600060028204905060018216806108fc57607f821691505b60208210810361090f5761090e6108b5565b5b5091905056fea26469706673582212201e7834dbff680febe9853a6aed92bf2fa390bead16702b99a94b00602c2620d664736f6c63430008130033",
  "linkReferences": {},
  "deployedLinkReferences": {}
}