{
  "_format": "hh-sol-artifact-1",
  "contractName": "Voting",
  "sourceName": "contracts/Voting.sol",
  "abi": [
    {
      "inputs": [],
      "stateMutability": "nonpayable",
      "type": "constructor"
    },
    {
      "anonymous": false,
      "inputs": [
        {
          "indexed": true,
          "internalType": "uint256",
          "name": "candidateId",
          "type": "uint256"
        },
        {
          "indexed": false,
          "internalType": "string",
          "name": "name",
          "type": "string"
        }
      ],
      "name": "CandidateAdded",
      "type": "event"
    },
    {
      "anonymous": false,
      "inputs": [
        {
          "indexed": true,
          "internalType": "uint256",
          "name": "round",
          "type": "uint256"
        }
      ],
      "name": "NewVotingRoundStarted",
      "type": "event"
    },
    {
      "anonymous": false,
      "inputs": [
        {
          "indexed": true,
          "internalType": "address",
          "name": "voter",
          "type": "address"
        },
        {
          "indexed": true,
          "internalType": "uint256",
          "name": "candidateId",
          "type": "uint256"
        },
        {
          "indexed": true,
          "internalType": "uint256",
          "name": "round",
          "type": "uint256"
        }
      ],
      "name": "Voted",
      "type": "event"
    },
    {
      "inputs": [
        {
          "internalType": "uint256",
          "name": "",
          "type": "uint256"
        }
      ],
      "name": "candidates",
      "outputs": [
        {
          "internalType": "string",
          "name": "name",
          "type": "string"
        },
        {
          "internalType": "uint256",
          "name": "voteCount",
          "type": "uint256"
        }
      ],
      "stateMutability": "view",
      "type": "function"
    },
    {
      "inputs": [],
      "name": "candidatesCount",
      "outputs": [
        {
          "internalType": "uint256",
          "name": "",
          "type": "uint256"
        }
      ],
      "stateMutability": "view",
      "type": "function"
    },
    {
      "inputs": [],
      "name": "currentRound",
      "outputs": [
        {
          "internalType": "uint256",
          "name": "",
          "type": "uint256"
        }
      ],
      "stateMutability": "view",
      "type": "function"
    },
    {
      "inputs": [],
      "name": "startNewVotingRound",
      "outputs": [],
      "stateMutability": "nonpayable",
      "type": "function"
    },
    {
      "inputs": [
        {
          "internalType": "uint256",
          "name": "_candidateId",
          "type": "uint256"
        }
      ],
      "name": "vote",
      "outputs": [],
      "stateMutability": "nonpayable",
      "type": "function"
    },
    {
      "inputs": [
        {
          "internalType": "address",
          "name": "",
          "type": "address"
        },
        {
          "internalType": "uint256",
          "name": "",
          "type": "uint256"
        }
      ],
      "name": "voterRounds",
      "outputs": [
        {
          "internalType": "bool",
          "name": "",
          "type": "bool"
        }
      ],
      "stateMutability": "view",
      "type": "function"
    }
  ],
  "bytecode": "0x608060405260016003553480156200001657600080fd5b506200005d6040518060400160405280600b81526020017f43616e6469646174652031000000000000000000000000000000000000000000815250620000a960201b60201c565b620000a36040518060400160405280600b81526020017f43616e6469646174652032000000000000000000000000000000000000000000815250620000a960201b60201c565b620005e2565b604051806040016040528082815260200160008152506001600060025481526020019081526020016000206000820151816000019081620000eb9190620003cc565b50602082015181600101559050506002547fe83b2a43e7e82d975c8a0a6d2f045153c869e111136a34d1889ab7b598e396a3826040516200012d919062000542565b60405180910390a2600260008154809291906200014a9062000595565b919050555050565b600081519050919050565b7f4e487b7100000000000000000000000000000000000000000000000000000000600052604160045260246000fd5b7f4e487b7100000000000000000000000000000000000000000000000000000000600052602260045260246000fd5b60006002820490506001821680620001d457607f821691505b602082108103620001ea57620001e96200018c565b5b50919050565b60008190508160005260206000209050919050565b60006020601f8301049050919050565b600082821b905092915050565b600060088302620002547fffffffffffffffffffffffffffffffffffffffffffffffffffffffffffffffff8262000215565b62000260868362000215565b95508019841693508086168417925050509392505050565b6000819050919050565b6000819050919050565b6000620002ad620002a7620002a18462000278565b62000282565b62000278565b9050919050565b6000819050919050565b620002c9836200028c565b620002e1620002d882620002b4565b84845462000222565b825550505050565b600090565b620002f8620002e9565b62000305818484620002be565b505050565b5b818110156200032d5762000321600082620002ee565b6001810190506200030b565b5050565b601f8211156200037c576200034681620001f0565b620003518462000205565b8101602085101562000361578190505b62000379620003708562000205565b8301826200030a565b50505b505050565b600082821c905092915050565b6000620003a16000198460080262000381565b1980831691505092915050565b6000620003bc83836200038e565b9150826002028217905092915050565b620003d78262000152565b67ffffffffffffffff811115620003f357620003f26200015d565b5b620003ff8254620001bb565b6200040c82828562000331565b600060209050601f8311600181146200044457600084156200042f578287015190505b6200043b8582620003ae565b865550620004ab565b601f1984166200045486620001f0565b60005b828110156200047e5784890151825560018201915060208501945060208101905062000457565b868310156200049e57848901516200049a601f8916826200038e565b8355505b6001600288020188555050505b505050505050565b600082825260208201905092915050565b60005b83811015620004e4578082015181840152602081019050620004c7565b60008484015250505050565b6000601f19601f8301169050919050565b60006200050e8262000152565b6200051a8185620004b3565b93506200052c818560208601620004c4565b6200053781620004f0565b840191505092915050565b600060208201905081810360008301526200055e818462000501565b905092915050565b7f4e487b7100000000000000000000000000000000000000000000000000000000600052601160045260246000fd5b6000620005a28262000278565b91507fffffffffffffffffffffffffffffffffffffffffffffffffffffffffffffffff8203620005d757620005d662000566565b5b600182019050919050565b61089880620005f26000396000f3fe608060405234801561001057600080fd5b50600436106100625760003560e01c80630121b93f146100675780632d35a8a2146100835780633477ee2e146100a15780635e777c1b146100d25780638a19c8bc14610102578063b74d149c14610120575b600080fd5b610081600480360381019061007c91906104a2565b61012a565b005b61008b6102fa565b60405161009891906104de565b60405180910390f35b6100bb60048036038101906100b691906104a2565b610300565b6040516100c9929190610589565b60405180910390f35b6100ec60048036038101906100e79190610617565b6103ac565b6040516100f99190610672565b60405180910390f35b61010a6103db565b60405161011791906104de565b60405180910390f35b6101286103e1565b005b6000803373ffffffffffffffffffffffffffffffffffffffff1673ffffffffffffffffffffffffffffffffffffffff1681526020019081526020016000206000600354815260200190815260200160002060009054906101000a900460ff16156101c9576040517f08c379a00000000000000000000000000000000000000000000000000000000081526004016101c0906106ff565b60405180910390fd5b600081101580156101db575060025481105b61021a576040517f08c379a00000000000000000000000000000000000000000000000000000000081526004016102119061076b565b60405180910390fd5b60016000803373ffffffffffffffffffffffffffffffffffffffff1673ffffffffffffffffffffffffffffffffffffffff1681526020019081526020016000206000600354815260200190815260200160002060006101000a81548160ff0219169083151502179055506001600082815260200190815260200160002060010160008154809291906102ab906107ba565b9190505550600354813373ffffffffffffffffffffffffffffffffffffffff167fea66f58e474bc09f580000e81f31b334d171db387d0c6098ba47bd897741679b60405160405180910390a450565b60025481565b600160205280600052604060002060009150905080600001805461032390610831565b80601f016020809104026020016040519081016040528092919081815260200182805461034f90610831565b801561039c5780601f106103715761010080835404028352916020019161039c565b820191906000526020600020905b81548152906001019060200180831161037f57829003601f168201915b5050505050908060010154905082565b60006020528160005260406000206020528060005260406000206000915091509054906101000a900460ff1681565b60035481565b600360008154809291906103f4906107ba565b919050555060005b6002548110156104355760006001600083815260200190815260200160002060010181905550808061042d906107ba565b9150506103fc565b506003547f14145ac857cf9dc1af0dac1629905781df99f6d5ea5de68128667ee0caf922b460405160405180910390a2565b600080fd5b6000819050919050565b61047f8161046c565b811461048a57600080fd5b50565b60008135905061049c81610476565b92915050565b6000602082840312156104b8576104b7610467565b5b60006104c68482850161048d565b91505092915050565b6104d88161046c565b82525050565b60006020820190506104f360008301846104cf565b92915050565b600081519050919050565b600082825260208201905092915050565b60005b83811015610533578082015181840152602081019050610518565b60008484015250505050565b6000601f19601f8301169050919050565b600061055b826104f9565b6105658185610504565b9350610575818560208601610515565b61057e8161053f565b840191505092915050565b600060408201905081810360008301526105a38185610550565b90506105b260208301846104cf565b9392505050565b600073ffffffffffffffffffffffffffffffffffffffff82169050919050565b60006105e4826105b9565b9050919050565b6105f4816105d9565b81146105ff57600080fd5b50565b600081359050610611816105eb565b92915050565b6000806040838503121561062e5761062d610467565b5b600061063c85828601610602565b925050602061064d8582860161048d565b9150509250929050565b60008115159050919050565b61066c81610657565b82525050565b60006020820190506106876000830184610663565b92915050565b7f596f75206861766520616c726561647920766f74656420696e2074686973207260008201527f6f756e642e000000000000000000000000000000000000000000000000000000602082015250565b60006106e9602583610504565b91506106f48261068d565b604082019050919050565b60006020820190508181036000830152610718816106dc565b9050919050565b7f496e76616c69642063616e6469646174652049442e0000000000000000000000600082015250565b6000610755601583610504565b91506107608261071f565b602082019050919050565b6000602082019050818103600083015261078481610748565b9050919050565b7f4e487b7100000000000000000000000000000000000000000000000000000000600052601160045260246000fd5b60006107c58261046c565b91507fffffffffffffffffffffffffffffffffffffffffffffffffffffffffffffffff82036107f7576107f661078b565b5b600182019050919050565b7f4e487b7100000000000000000000000000000000000000000000000000000000600052602260045260246000fd5b6000600282049050600182168061084957607f821691505b60208210810361085c5761085b610802565b5b5091905056fea26469706673582212203754bbe8e01b5b73610fae83f8bfc74b6cbee671fcaefec3133a79a043600ff564736f6c63430008130033",
  "linkReferences": {},
  "deployedLinkReferences": {}
}